:100000000C94B6010C94BA100C9493100C94DE016D
:100010000C94DE010C94DE010C94DE010C94AB0A0E
:100020000C94DE010C94DE010C94DE010C94DE01D4
:100030000C94DE010C94DE010C94DE010C94DE01C4
:100040000C9449100C94DE010C94000F0C94DA0E01
:100050000C94DE010C94DE010C94DE010C94DE01A4
:100060000C949D110C94DE010B1E9F1EF41EF11EBC
:10007000A322F11EDA1E2D1F4C1FD01FAF20BC2162
:100080000B1EC120FE205D211D1E4E207B200F2057
:10009000E9219B22A409160A160A160AAA09B70919
:1000A000C209DE09050A0C0A7A098F0995099E0919
:1000B0008609EE09FC09E6094C0AAA0AAA0AAA0A54
:1000C000520A5F0A690A730A9A0AA10A280A370AB9
:1000D0003D0A460A2E0A830A910A7B0A0516FF1575
:1000E000051603160516031605160516031605163E
:1000F0000316051668177317831789178F17961736
:10010000A117AB17B217B817BE17C917681773171F
:10011000831789178F179617A117AB17B217B81740
:10012000BE17C917681768177917831789178F17AC
:100130009617A117AB17B217B817BE17C9176817CC
:100140007917831789178F179617A117AB17B2174F
:10015000B817BE17C91768173D1832182E182A1875
:10016000261822181E181A18161812180E187D1A9A
:100170007F1A911A9B1AAA1AC11ADD1ACE1AE71A07
:10018000151B391B431B56657273696F6E3A20004D
:100190001E1212121E040C04040E1E021E101E1E3D
:1001A000020E021E12121E02021E101E021E1E103F
:1001B0001E121E1E020202021E121E121E1E121EFF
:1001C000021E0E11131519110E040C040404040E62
:1001D0000E11010204081F1F02040201110E020683
:1001E0000A121F02021F101E0101110E0608101E26
:1001F00011110E1F0102040808080E11110E111131
:100200000E0E11110F01020CFFFFFFFF000000FF97
:10021000000000FF00FF80E619FFFFFF00FF400025
:10022000FF8000FFC400FFFF0000FF4000FF8000D0
:10023000FFC400FFFF4000FF8000FFC400FFFF007D
:10024000FF00000000230026002900000000080035
:100250000201000003040700000000000000001E6F
:100260001212121E040C04040E1E021E101E1E0288
:100270000E021E12121E02021E101E021E1E101E52
:10028000121E1E020202021E121E121E1E121E024A
:100290001E0C121E1212011C121C121C010E101038
:1002A000100E011C1212121C011E101C101E011E29
:1002B000101C1010010E1016120C0112121E121238
:1002C000011010101010041E0202120C011214185A
:1002D000141201101010101E01111B151111001124
:1002E00019151311000C1212120C011C121C101003
:1002F000010C12120C02011C121C1412010E100C23
:10030000021C011F0404040400111111110E00113C
:1003100011110A04001111151B1100110A040A1110
:1003200000110A040404001E0204081E010000005B
:1003300000250028002B0000000000240027002AD0
:10034000000102040810204080010204081020016E
:100350000204081020040404040404040402020239
:1003600002020203030303030300DD2711241FBE5F
:10037000CFEFD8E0DEBFCDBF11E0A0E0B1E0E8E113
:10038000FCE502C005900D92AA3DB107D9F725E022
:10039000AAEDB1E001C01D92A439B207E1F711E066
:1003A000C6EBD1E004C02197FE010E94F82DC53BA9
:1003B000D107C9F70E94611B0C940A2E0C9400000F
:1003C0000895CF93DF93EC01E881F9810680F781EE
:1003D000E02D62E30995E881F9810088F189E02D3B
:1003E000CE010995E881F9810684F785E02DCE01DB
:1003F000DF91CF910994FC014F3880E758078FEFC8
:100400006807710509F4C5C008F05BC04F3C80E384
:1004100058078FEF6807710509F4B5C048F5473EE6
:1004200088E158078FEF6807710509F4BEC080F4B2
:10043000473F88E058078FEF6807710509F4B7C098
:100440004F3E50416F4F710509F0BBC082E09CC028
:100450004F3D80E258078FEF6807710509F4B3C07C
:10046000473D58426F4F710509F0ABC081E096C01F
:10047000473A88E558078FEF6807710509F499C076
:1004800080F4473B88E458078FEF6807710509F44B
:1004900092C04F3A50456F4F710509F092C083E00A
:1004A00073C04F3980E658078FEF6807710509F46C
:1004B00065C0473958466F4F710509F082C082E028
:1004C0006DC04F3480EB58078FEF6807710509F452
:1004D0005EC040F5473688E958078FEF6807710519
:1004E00009F45FC080F4473788E858078FEF680742
:1004F000710509F458C04F3650496F4F710509F026
:1005000060C081E041C04F3580EA58078FEF68072F
:100510007105B1F14735584A6F4F710509F051C067
:1005200012823DC0473288ED58078FEF680771058A
:1005300009F443C070F4473388EC58078FEF68071D
:100540007105E9F14F32504D6F4F7105D1F585E0DE
:100550001BC0473188EE58078FEF68077105E9F037
:100560004F3080EF58078FEF68077105A1F04F31CA
:10057000504E6F4F710529F587E008958DE6089577
:10058000148285E6089584E083838AE008951382C7
:10059000FCCF86E0F9CF83E1F7CF83E082838CE65E
:1005A000089588E6089589E608958AE608958BE619
:1005B000089584E0089585E0089587E6089586E02B
:1005C000089580E0089586E6089508952F923F9259
:1005D0004F925F926F927F928F929F92AF92BF9253
:1005E000CF92DF92EF92FF920F931F93CF93DF93FF
:1005F000CDB7DEB763970FB6F894DEBF0FBECDBFA1
:100600001C013B01E42E122F9C01275B3F4F3F83CF
:100610002E831331B1F5D9018C91882309F440C0A0
:100620000E943D106101B5E4CB0ED11CF601808023
:100630009180A280B380AB01BC01481959096A09B5
:100640007B0980918F052BE030E0281B3109E4E61F
:10065000E29FC001E39F900D1124092E000CAA0B0C
:10066000BB0B84179507A607B707D0F40E943D106F
:10067000D6016D937D938D939C93139732E0F32E67
:100680004FC0143169F48091060565E00E94C42DC5
:10069000911106C08091DB01811102C0411135C06A
:1006A000F12C00E0EE81FF812081A101465B5F4FCC
:1006B0002A0121110AC0DA018D919C9111970097AE
:1006C00021F001978D939C9303C0F2011182108257
:1006D000F101E25BFF4FE11025C08081811122C052
:1006E000D101A45BBF4F8C9181111CC001111AC0B4
:1006F000D2018D919C91892B29F0809188058130C0
:1007000009F039C5211137C50DC00E943D10F10116
:10071000EB5BFF4F608371838283938348ECF42EFD
:1007200001E0C0CF108280914C04882381F091E0D9
:10073000EE81FF819083F101E45BFF4F1082EE2098
:1007400009F440C09091DB01992381F009C0E110C8
:10075000F9CFF101E45BFF4F90819111F3CF32C0EB
:10076000F101E45BFF4F9081992361F181112AC06F
:10077000AE81BF818C91882329F1809188058130D9
:1007800009F06EC2F101E45BFF4F4081EA54F109C8
:10079000D301C10148962689378921933193442397
:1007A00009F489C2158A148A13A612A61296E817AC
:1007B000F90789F7EE81FF81108289E190E0D2018B
:1007C0008D939C93AE81BF814C9141110AC0F10180
:1007D000E45BFF4F1082F20180819181892B91F0BF
:1007E00030C2F1013296D301C101489611921192A3
:1007F0002D913D91358B248B13A612A6E817F9078E
:10080000A9F7E5CF41111DC280918805823039F0EA
:10081000833009F45EC1811114C281E00FC2F1017D
:10082000E15BFF4FA081B18126EC3DEF4FEF5FEF21
:100830000E94512D2EE630E040E050E00E94322D23
:10084000DA01C9018A549C4FAF4FBF4FF201918327
:1008500080836101FEE2CF0ED11C510122E0A20E85
:10086000B11C65E070E080E090E00E94B60EE62EDC
:100870008091F501D101AE5BBF4FF10176968111F8
:100880007FC09E918E9113969C938E931297808138
:10089000918132912291822B932B93838283EA154B
:1008A000FB0579F7D10114962D913C911597D096BF
:1008B0008D919C91D197822B932B13969C938E9321
:1008C00012979F961C921E929E9763E070E080E0C4
:1008D00090E00E94B60E16161706180619060CF0C0
:1008E000CCC08091F4018150823088F48091F20173
:1008F0009091F301AC0140955095F10126A537A5E3
:10090000242B352B37A726A7822B932B7BC0912C2A
:10091000AA24A394B12C9E1408F0AFC06CE070E040
:1009200080E090E00E94B60E2091F2013091F30138
:10093000DC01CB010496A11DB11DA50102C0440F2D
:10094000551F8A95E2F7CA0142235323452B59F4D8
:10095000282B392B3093F3012093F2012091F401DD
:1009600021502093F401D1019E962D913C919F97A7
:10097000822B932B9F969C938E939E979394CBCF91
:100980009E918E9113969C938E9312979291829141
:1009900093838283AC15BD0599F7F10180A991A9D4
:1009A000809590952481358182239323938382833C
:1009B00017A616A663E070E080E090E00E94B60EF5
:1009C00016161706180619060CF057C08091F40188
:1009D000882309F452C0833008F08FC14091F2019E
:1009E0005091F301CA0180959095D1019E962D9169
:1009F0003C919F97822B932B9F969C938E939E97CF
:100A0000842B952B9093F3018093F2011092F401C3
:100A100034C06CE070E080E090E00E94B60E20915F
:100A2000F2013091F301DC01CB010496A11DB11D4F
:100A3000F50102C0EE0FFF1F8A95E2F7CF01AF016B
:100A400042235323452BB1F42E2B3F2B3093F3013C
:100A50002093F2012091F40121502093F401D1015F
:100A60009E962D913C919F97822B932B9F969C93C2
:100A70008E939E9793949E1460F28091F40181115D
:100A800025C08091F6018F5F8093F6018C30F0F0E5
:100A90008091F501811117C0D301F10178968D91F4
:100AA0009D9181939193EC15FD05C9F71092F30187
:100AB0001092F2018CE08093F4011092F60181E033
:100AC0008093F50103C081E08093F1018091F101F1
:100AD000B5C08EE591E091838083F1017896F98726
:100AE000E8878091F601EE24E394E80EE092F601A7
:100AF000F5E1FE1508F44CC02BE02E1518F06E2D14
:100B000070E002C06CE070E0912C8FE0682E712CD8
:100B1000AA24A394B12C61013CE2C30ED11C892DFF
:100B200090E0861797076CF5A301481B590BD50178
:100B300002C0AA0FBB1F4A95E2F7F6019D0120955E
:100B400030954081518142235323518340839291B8
:100B500082918A239B23842B952B93838283888580
:100B60009985E817F90769F7D10158968D919C91FD
:100B700059972823392359963C932E935897939449
:100B8000CECF81E0B9E2BE1508F458C080E056C06F
:100B9000FFE1FE1518F442EE480F01C040E020E2EC
:100BA0002E1538F02E2D30E0490155E1851A9108B7
:100BB00003C0BCE08B2E912C8451841B242F30E089
:100BC00028153905F4F66FE070E0621B730BCC2436
:100BD000C394D12C02C0CC0CDD1C6A95E2F7E885E9
:100BE000F98596EF980F5601A094B0942081318139
:100BF000B50162237323718360839C3068F4D30151
:100C0000A90FB11DA90FB11D2D913C912C213D21A2
:100C1000262B372B3183208332969F5F9813E6CFA4
:100C2000D30154962D913C915597A222B32255960B
:100C3000BC92AE9254974F5F8150C0CFEE81FF813E
:100C40008083909088059101235B3F4F590131E0EB
:100C50009312CCC1AE81BF818C918111C7C152C0AA
:100C60008130C0F4F101E45BFF4F8081882309F4F7
:100C7000A9CDF497C1018E9611921192E817F90748
:100C8000D9F7AE81BF811C9288EE93E0F201918387
:100C9000808398CD843008F095CD8091060565E07D
:100CA0000E94C42D992369F0F101E45BFF4F80811C
:100CB000811107C087CD2D913C911197358B248BE5
:100CC00073CD1092F6011092F3011092F2018CE0B4
:100CD0008093F4011092F5011092F101F101329626
:100CE000C10148961192119213A612A6E817F907AE
:100CF000C9F7EE81FF81108265CD912CAA24A394BF
:100D0000B12CB9CEF501C080D2010D90BC91A02DBF
:100D1000B987A887D12C9D01D6010E94862D2B0171
:100D20003C0129E130E040E050E00E94322DE22E0B
:100D30009601A9E1B0E00E94862DA3019201261B35
:100D4000370B480B590BCA01B90127EE3FEF4FEFA4
:100D50005FEF0E94322DD22E48855985452B19F41C
:100D6000EE81FF819082133108F088C0812F90E0DE
:100D70008C01000F111F080F191F9801275F3D4FAD
:100D80002901F9014491D501CC906C2DC1010E943B
:100D9000D40BF82EF801E65FFD4F3F0144916C2D16
:100DA000C1010E94D40B882E085F1D4FF8014491A9
:100DB0006C2DC1010E94D40B282D2068806890E022
:100DC000A0E0B0E0BA2FA92F982F8827A22B2F2DB3
:100DD0002068AC01BD01422B4A875B876C877D8709
:100DE000F20144916D2DC1010E94D40BF82EF30144
:100DF00044916D2DC1010E94D40BC82EF80144917D
:100E00006D2DC1010E94D40B2C2D2068806890E0CC
:100E1000A0E0B0E0BA2FA92F982F8827A22B2F2D62
:100E20002068AC01BD01422B4E875F87688B798BB0
:100E3000F20144916E2DC1010E94D40BF82EF301F2
:100E400044916E2DC1010E94D40BD82EF80144911B
:100E50006E2DC1010E94D40B9D2D90688068482F93
:100E600050E060E070E0762F652F542F4427692B07
:100E70008F2D80686A017B01C82A32C0135112305D
:100E800020F5F101EC5BFF4F002319F08081F80E93
:100E9000F0821081412FD5016C91C1010E94E30BBA
:100EA0006A877B878C879D87412F6D2DC1010E94AA
:100EB000E30B6E877F87888B998B412F6E2DC10145
:100EC0000E94E30B6B017C010BC0C12CD12C76017D
:100ED0001E861F86188A198A1A861B861C861D86FE
:100EE000B2E09B1206C0EE81FF818081882309F465
:100EF00081C0812C912C5401412C512C3201C10113
:100F00000E944A0BF101E15BFF4F118210823F8288
:100F10002E8206EFF987E8871EE6100F65E070E085
:100F20007B8B6A8B81E090E00A8802C0880F991F52
:100F30000A94E2F720918805213009F094C0AE812F
:100F4000BF8112962D913C9113972823392328179E
:100F5000390709F088C058964D915C915997422302
:100F600053234217530709F07EC02A853B854C85E1
:100F70005D85612FC1010E94420C2A893B892F5F48
:100F80003F4F3B8B2A8B1A501013CCCF01E0010F3F
:100F90004E815F814E5F5F4F5F834E830111BCCFF7
:100FA00085E0E7E1F1E0DE01119601900D928A956E
:100FB000E1F78E010F5F1F4F5EE6B52E8091880529
:100FC000813009F096C0D8018C91F101E80FF11D34
:100FD000E80FF11D22813381808D918D822393232F
:100FE0008F719927892B09F0C1C083C0D501DC908E
:100FF000E12CB9CEF501008110E09801AFE7B0E037
:101000000E94862D24E6C22ED12CE12CF12CA701C2
:1010100096010E94322D29013A0155246624772435
:10102000689447F857F867F89801AFE3B0E00E947A
:10103000862DA70196010E94322D49015A0168941C
:1010400087F897F8A7F89801ACE0B0E00E94862DE9
:10105000A70196010E94322D69017A016894C7F8B0
:10106000D7F8E7F84CCFAE81BF819E962D913C9189
:101070009F97282339232817390719F4A3019201D0
:101080002CC0AE81BF81D0962D913C91D197282361
:1010900039232817390719F4A50194011EC0AE8120
:1010A000BF8112962D913C9113972823392328173D
:1010B000390719F4A701960110C0AE81BF81589677
:1010C0002D913C915997282339232817390709F086
:1010D00054CF2E853F8548895989612FC1010E94CF
:1010E000420CE885F9858081918101969183808306
:1010F00044CFF8018081F101E80FF11DE80FF11DE7
:10110000828184FF03C0A701960107C0808D84FF00
:1011100008C02E853F85488959896B2DC1010E94E1
:10112000420CB3940F5F1F4FB3E7BB1247CFF101DF
:10113000EF5AFF4F8081918163960FB6F894DEBF1E
:101140000FBECDBFDF91CF911F910F91FF90EF9018
:10115000DF90CF90BF90AF909F908F907F906F90D7
:101160005F904F903F902F900C94FA102A853B850A
:101170004C855D85D2CF63960FB6F894DEBF0FBE67
:10118000CDBFDF91CF911F910F91FF90EF90DF9036
:10119000CF90BF90AF909F908F907F906F905F9017
:1011A0004F903F902F900895CF93DF93EC018A8169
:1011B00081110AC088810E94320F4B8150E021E0EA
:1011C0008417950799F413C088810E94320F2B81F0
:1011D00030E08217930751F489810E94320F2B81EE
:1011E00030E08217930711F421E001C020E0822F44
:1011F000DF91CF9108950F931F93CF93DF93EC016D
:101200008A81811102C0888109C088810E94320FC1
:101210002B8130E082179307C9F489810E94320F35
:101220002B8130E08217930789F40E943D100C81D6
:101230001D812E813F81DC01CB01801B910BA20B14
:10124000B30B8D329140A105B10510F480E007C0C9
:101250000E943D106C837D838E839F8381E0DF91AC
:10126000CF911F910F910895FC01E35BFF4F8081A7
:101270000895089581E0809304018091DB018F5FE0
:101280008093DB018091DA01882381F090914C04F6
:10129000933061F081508093DA01811107C0915140
:1012A000923020F010924C0410924B04089508954F
:1012B000FC01E35BFF4F2081621751F0DC01A75B6B
:1012C000BF4F2C91222321F06083319681E08083EF
:1012D000089581E080930401E0914C048E2F90E00A
:1012E000FC013297E231F10508F0A0C0E65BFF4F48
:1012F0000C94F82D809106058F5F8C3318F4809341
:10130000060502C0109206050C94B518809186055A
:101310008D300CF08BC08F5F80938605089580918F
:101320000B058F5F80930B0505C080910A058F5FC9
:1013300080930A050E94D2150C94511380910805E0
:101340008F5F80930805F6CF80918E058093DA0138
:101350000C94E7189091820581E08927809382059B
:10136000811164C0809179058093830508958091EF
:101370008805833019F41092880508958F5F809353
:101380008805089580918705843119F410928705A6
:1013900003C08F5F8093870580918705833108F4B0
:1013A00045C0109270050E943D10609371057093C6
:1013B00072058093730590937405089580918F054D
:1013C0008A30A0F58F5F80938F05089580918E05F8
:1013D000833660F58F5F80938E0508958091DA01E2
:1013E000882331F080918A0590918B050E94D41258
:1013F00085E08093DA0108958091DA018823C1F3B2
:1014000080918C0590918D05F1CF9091850581E0BB
:101410008927809385050895809180058F5F8430AA
:1014200018F480938005089510928005089581E056
:1014300080930401E0914C048E2F90E0FC013297E0
:10144000E231F10508F086C0E45AFF4F0C94F82D04
:1014500086E095E00E94CB120C94B5188091860529
:10146000843F0CF477C08150809386050895809165
:101470000B05865F80930B0505C080910A05865F8A
:1014800080930A050E94D2150C945113809108058F
:10149000865F80930805F6CF80918E058093DA01F0
:1014A0000C94C4189091820581E08927809382056D
:1014B000811150C0809179058093830508958091B2
:1014C0008805811102C083E001C0815080938805A6
:1014D000089580918705811102C084E101C0815087
:1014E00080938705089580918F05882399F1815015
:1014F00080938F05089580918E05882359F181503E
:1015000080938E0508958091DA01882331F08091CF
:101510008A0590918B050E94CB1285E08093DA01B9
:1015200008958091DA018823C1F380918C05909110
:101530008D05F1CF9091850581E089278093850500
:10154000089580918005811102C083E001C081501F
:101550008093800508951F920F920FB60F92112469
:101560002F933F934F935F936F937F938F939F93AB
:10157000AF93BF93EF93FF9380917D030E94320F4F
:1015800020918003309181032F5F3F4F309381037F
:101590002093800390914A04943618F095E090933C
:1015A0007E0390917E039330B9F018F4923039F0B5
:1015B00057C0943059F1953009F44CC051C0811195
:1015C0004FC020918003309181032436310508F407
:1015D00043C010924A041CC0813009F041C0E09120
:1015E0004A0491E09E0F90934A04F0E0209180031A
:1015F00030918103EE0FFF1FE358FC4F36832583A4
:10160000109281031092800394E021C0811117C0D1
:10161000E0914A0491E09E0F90934A04F0E02091FB
:10162000800330918103EE0FFF1FE358FC4F368398
:101630002583109281031092800393E008C02091CB
:101640008003309181032536310550F095E0909369
:101650007E0306C0811104C01092810310928003A2
:1016600090917F03992329F0811102C02D9A01C026
:101670002D98FF91EF91BF91AF919F918F917F91A5
:101680006F915F914F913F912F910F900FBE0F90EF
:101690001F9018950F931F93CF93DF93C0E0D0E076
:1016A0008C010F5A1F4F20E030E0A901BE01F80164
:1016B000808191810E94E1102196C337D10599F76D
:1016C000DF91CF911F910F910895CF93DF93EC019C
:1016D0000E944A0BCF5ADF4F88819981DF91CF91C9
:1016E0000C94FA10CF93DF93EC010E944A0BFE0199
:1016F000EF5AFF4F808191810E94FA10C75BDF4F44
:1017000081E08883DF91CF91089581E08093040187
:1017100080914C04853019F40E94091906C08F5F2E
:1017200066E10E94C42D90934C0480918205882329
:1017300021F080914C04823021F180914C0484305E
:1017400011F0863111F410924C041092DA0180915C
:101750004C049FEF980F923020F490918E05909357
:10176000DA01833021F48CE295E00E94720B8091C3
:101770004C04833021F0853011F080934B040C949D
:10178000E01483E080934C04D8CF81E0809304017F
:101790000E947118882339F085E080934C048CE214
:1017A00095E00C94720B0895A42FA695262F30E097
:1017B000B0E00E94862D24E630E040E050E00E9438
:1017C000322D822F0895FF920F931F93CF93DF93B3
:1017D0008C01F62E4535D8F4C42FCC0FC40F4C2FF6
:1017E00040950E94D40BD82F4C2F6F2DC8010E941A
:1017F000D40BD068806890E0A0E0B0E0BA2FA92FA9
:10180000982F8827AD2BBC01CD01606835C04A3ABE
:10181000C8F44555D42FDD0FD40F4D2F0E94D40BA3
:10182000C82F4D2F40956F2DC8010E94D40B4C2F0F
:1018300050E060E070E04068606880688A019B0169
:10184000182B18C04A5AD42FDD0FD40F4D2F4095B6
:101850000E94D40BC82F4D2F6F2DC8010E94D40BAE
:101860004C2F50E060E070E04068506880688A016A
:101870009B01282BC901B801DF91CF911F910F91D6
:10188000FF900895DC01E62F6E3618F5862F6AE08A
:101890000E94C42DAF5ABF4F80FF0AC0682F660F49
:1018A000862F880F880F680F691BE9E0E60F07C0D5
:1018B000EA3028F46E2F70E06F5F7F4F2DC06E2FDF
:1018C00070E0E43618F46E5F7F4F26C06D5F7F4F87
:1018D00023C06037C1F048F46E3681F06F3601F5F1
:1018E000AF5ABF4F66E670E017C0613789F06237C4
:1018F000B9F4AF5ABF4F62E770E00EC0AF5ABF4FA6
:1019000060E070E009C0AF5ABF4F61E770E004C00B
:10191000AF5ABF4F6BE070E08D919C910E94E11037
:1019200061E070E080E090E00C940310CF92DF92D1
:10193000EF92FF920F931F93CF93DF936C017A0185
:101940008B01C0E0D0E0CE15DF0589F0D8016D91A4
:101950008D01D601ED91FC910190F081E02DC60141
:101960000995892B11F47E0102C02196ECCFC701A5
:10197000DF91CF911F910F91FF90EF90DF90CF906B
:101980000895FC01538D448D252F30E0842F90E085
:10199000821B930B541710F0CF960895019708956A
:1019A000FC01918D828D981761F0828DDF01A80F67
:1019B000B11D5D968C91928D9F5F9F73928F90E089
:1019C00008958FEF9FEF0895FC01918D828D9817F8
:1019D00031F0828DE80FF11D858D90E008958FEF35
:1019E0009FEF0895FC01918D228D892F90E0805CFE
:1019F0009F4F821B91098F739927089584ED92E080
:101A00000E94F20C21E0892B09F420E0822F089536
:101A1000FC01848DDF01A80FB11DA35ABF4F2C918B
:101A2000848D90E001968F739927848FA689B7895A
:101A30002C93A089B1898C9180648C93938D848D33
:101A4000981306C00288F389E02D80818F7D808302
:101A50000895EF92FF920F931F93CF93DF93EC01C2
:101A600081E0888F9B8D8C8D981305C0E889F9895A
:101A7000808185FD24C0F62E0B8D10E00F5F1F4F77
:101A80000F731127E02E8C8DE8120CC00FB607FCE7
:101A9000FACFE889F989808185FFF5CFCE010E94D0
:101AA000080DF1CF8B8DFE01E80FF11DE35AFF4FBA
:101AB000F0820B8FEA89FB898081806207C0EE8902
:101AC000FF896083E889F98980818064808381E06F
:101AD00090E0DF91CF911F910F91FF90EF900895CB
:101AE000CF93DF93EC01888D8823C9F0EA89FB89C5
:101AF000808185FD05C0A889B9898C9186FD0FC0BC
:101B00000FB607FCF5CF808185FFF2CFA889B98990
:101B10008C9185FFEDCFCE010E94080DE7CFDF91BC
:101B2000CF91089580E090E0892B29F00E94FE0C6F
:101B300081110C9400000895833081F028F48130E5
:101B400099F08230A1F008958730A9F08830B9F07B
:101B50008430D1F4809180008F7D03C0809180001B
:101B60008F7780938000089584B58F7702C084B505
:101B70008F7D84BD08958091B0008F7703C08091E0
:101B8000B0008F7D8093B00008950895FC01808996
:101B9000882339F06EBD00000DB407FEFDCF8EB571
:101BA000089528E030E090E8A685B7858385492F21
:101BB000462319F04C91842B03C04C9180958423CB
:101BC0008C93A485B5854C918285842B8C93A485B8
:101BD000B5854C918285809584238C939695215070
:101BE000310911F7089585ED8093BC008091BC0008
:101BF00084FDFCCF1092AF02089540911902262F68
:101C000030E0240F311D21323105DCF42091AF0288
:101C10002430C9F4FC0180E090E0861758F430913C
:101C200019022191DC01A950BE4FA30FB11D2C93C5
:101C30000196F3CF80911902680F6093190280E03A
:101C4000089581E0089582E008950895E091680282
:101C500080916702E81730F4F0E0E759FD4F80818A
:101C600090E008958FEF9FEF089590916802809122
:101C70006702981750F4E92FF0E0E759FD4F2081F3
:101C800030E09F5F9093680202C02FEF3FEFC901E1
:101C900008958091670290E020916802821B91096B
:101CA0000895CF92DF92EF92FF920F931F93CF93FD
:101CB000DF937C01262F972F8A018091B002882321
:101CC00091F0C62FD72F6E01C40ED51ECC15DD05A1
:101CD00071F06991D701ED91FC910190F081E02DB7
:101CE000C7010995F3CF642F822F0E94FD0DC80113
:101CF000DF91CF911F910F91FF90EF90DF90CF90E8
:101D00000895CF93DF931F92CDB7DEB769832091FB
:101D1000B0022223D1F02091D302203240F021E002
:101D200030E0FC013383228380E090E015C0809195
:101D3000B102E82FF0E0EE54FD4F998190838F5F60
:101D40008093B1028093D30205C061E0CE01019679
:101D50000E94FD0D81E090E00F90DF91CF910895FA
:101D6000089580E090E008950E94FE2DCF93DF93C8
:101D700000D000D0CDB7DEB76115710581059105A2
:101D800079F09B01AC0169833A834B835C830E94A9
:101D9000132C29813A814B815C810E94322D03C032
:101DA00060E070E0CB010F900F900F900F90DF91EB
:101DB000CF9108951F920F920FB60F9211242F9377
:101DC0003F934F935F936F937F938F939F93AF93C3
:101DD000BF93EF93FF9384ED92E00E94080DFF9173
:101DE000EF91BF91AF919F918F917F916F915F9193
:101DF0004F913F912F910F900FBE0F901F9018950C
:101E00001F920F920FB60F9211242F938F939F93CF
:101E1000EF93FF93E091E402F091E5028081E0917D
:101E2000EA02F091EB0282FD12C090818091ED02F6
:101E30008F5F8F732091EE02821751F0E091ED02D7
:101E4000F0E0EC52FD4F958F8093ED0201C0808150
:101E5000FF91EF919F918F912F910F900FBE0F9057
:101E60001F901895CF93DF93282F30E0F901E55BA1
:101E7000FD4F8491F901EF5BFC4FD491F901EB5ACE
:101E8000FC4FC491CC2391F081110E949C0DEC2F4A
:101E9000F0E0EE0FFF1FEF5BFD4FA591B491EC91C9
:101EA000ED2381E090E021F480E002C080E090E04A
:101EB000DF91CF9108951F93CF93DF93282F30E0C8
:101EC000F901E55BFD4F8491F901EF5BFC4FD49183
:101ED000F901EB5AFC4FC491CC23C9F0162F8111A4
:101EE0000E949C0DEC2FF0E0EE0FFF1FE35DFC4F16
:101EF000A591B4918FB7F894111105C09C91ED2F65
:101F0000E095E92302C0EC91ED2BEC938FBFDF91BC
:101F1000CF911F910895CF93DF9390E0FC01EF5B89
:101F2000FC4F2491FC01EB5AFC4F8491882361F112
:101F300090E0880F991FFC01E95CFC4FC591D4919A
:101F4000FC01E35DFC4FA591B491611109C09FB7FD
:101F5000F8948881209582238883EC912E230BC0EE
:101F6000623061F49FB7F8943881822F8095832383
:101F70008883EC912E2B2C939FBF06C08FB7F894CB
:101F8000E8812E2B28838FBFDF91CF9108958E306B
:101F900008F08E508770806480937C0080917A0076
:101FA000806480937A0080917A0086FDFCCF8091D6
:101FB00078002091790090E0922B08953FB7F89433
:101FC0008091430290914402A0914502B091460253
:101FD00026B5A89B05C02F3F19F00196A11DB11D84
:101FE0003FBFBA2FA92F982F8827820F911DA11DBF
:101FF000B11DBC01CD0142E0660F771F881F991FFC
:102000004A95D1F708958F929F92AF92BF92CF9247
:10201000DF92EF92FF926B017C010E94DE0F4B0179
:102020005C01C114D104E104F104F1F00E94DE0F5F
:10203000DC01CB0188199909AA09BB09883E9340A4
:10204000A105B10570F321E0C21AD108E108F10839
:1020500088EE880E83E0981EA11CB11CC114D10427
:10206000E104F10419F7DDCFFF90EF90DF90CF90FE
:10207000BF90AF909F908F9008952FB7F894609184
:102080003F027091400280914102909142022FBF25
:1020900008951F920F920FB60F9211242F933F9322
:1020A0008F939F93AF93BF9380913F029091400293
:1020B000A0914102B091420230913E0223E0230FF1
:1020C0002D3720F40196A11DB11D05C026E8230F70
:1020D0000296A11DB11D20933E0280933F02909372
:1020E0004002A0934102B09342028091430290913A
:1020F0004402A0914502B09146020196A11DB11D76
:102100008093430290934402A0934502B093460209
:10211000BF91AF919F918F913F912F910F900FBEE3
:102120000F901F9018951F920F920FB60F921124C7
:102130002F933F934F935F936F937F938F939F93CF
:10214000AF93BF93EF93FF93E0910201F0910301EE
:102150000995FF91EF91BF91AF919F918F917F91E1
:102160006F915F914F913F912F910F900FBE0F9004
:102170001F9018951F920F920FB60F9211242F9354
:102180003F934F935F936F937F938F939F93AF93FF
:10219000BF93EF93FF93E0910001F0910101099546
:1021A000FF91EF91BF91AF919F918F917F916F912F
:1021B0005F914F913F912F910F900FBE0F901F9005
:1021C0001895DC01ED91FC9111976E177F0788F44B
:1021D000FB01EE0FFF1F6E0F7F1F1696ED91FC9116
:1021E0001797E60FF71F40684083306831832068F7
:1021F000228308958F929F92AF92BF92CF92DF92E7
:10220000EF92FF920F931F93CF938C01FC01E68016
:10221000F7806701F2E0CF0ED11CFC01A080B180F5
:10222000A114B104C1F1F701C081F60192914F01EF
:10223000F6018081C91710F4C81720F0C92F89173B
:1022400008F4C82F6C2FC8010E94C60DCF77F70184
:1022500060816C1BC8010E94C60DF60160816C1B79
:10226000C8010E94C60DF40160816C1BC8010E9468
:10227000C60D60E8C8010E94C60D60E8C8010E9452
:10228000C60DF3E0EF0EF11C81E0A81AB108E3E0FF
:10229000CE0ED11CC5CFF801E480F580E114F10425
:1022A00041F060E0C8010E94C60DF1E0EF1AF108AC
:1022B000F5CFCF911F910F91FF90EF90DF90CF90CE
:1022C000BF90AF909F908F900895CF93DF93EC01D4
:1022D00061E089850E948B0F61E088850E948B0FE9
:1022E000EE85FF8590818B85809589238083288169
:1022F0003981220F331F215E3F4F95E03695279598
:102300009A95E1F743E0220F331F4A95E1F7211533
:10231000310581F0EC85FD8590818A85892B80834C
:10232000EC85FD8590818A85809589238083215065
:102330003109EDCFDF91CF9108951F920F920FB623
:102340000F9211242F933F934F935F936F937F933B
:102350008F939F93AF93BF93EF93FF938091B900B7
:10236000887F803609F49CC068F5883209F45BC028
:1023700090F4803109F454C038F4882309F4F6C08D
:10238000883009F44DC0F6C0883109F44CC0803261
:1023900009F45DC0EFC0803409F468C048F48033AC
:1023A00009F455C0883309F0E5C08093AD02D8C068
:1023B000803509F44FC0883509F45DC0883409F0D0
:1023C000D9C0D6C0883909F4C7C0A8F4883709F441
:1023D00067C038F4883609F463C0803709F460C0F8
:1023E000C9C0883809F4B8C0803909F45FC08038A2
:1023F00009F0C0C05BC0803B09F486C038F4803A65
:1024000009F466C0883A09F47FC0B4C0803C09F47E
:10241000A7C0883C09F4A4C0883B09F48AC0AAC0BC
:1024200080918A0210C09091AC028091AB02981703
:1024300070F5E091AC0281E08E0F8093AC02F0E089
:10244000E557FD4F80818093BB0085EC86C080936B
:10245000AD028EC0E091AC0281E08E0F8093AC02A1
:102460008091BB00F0E0E557FD4F80839091AC0276
:102470008091AB026EC0E091AC0281E08E0F809340
:10248000AC028091BB00F0E0E557FD4F8083809166
:10249000AE0281116DC081E08093890284EA61C03F
:1024A00083E08093AF0210923D02CFCF80913D0236
:1024B000803208F051C0E0913D0281E08E0F8093A0
:1024C0003D028091BB00F0E0E35EFD4F8083BDCF15
:1024D00085EC8093BC001092AF0280913D02803267
:1024E00030F4E0913D02F0E0E35EFD4F1082609138
:1024F0003D0270E0E0911B02F0911C028DE192E040
:10250000099510923D0236C084E08093AF0210928C
:102510001A0210921902E0911702F091180209951F
:1025200080911902811105C081E0809319021092F7
:10253000F701E0911A0281E08E0F80931A02F0E019
:10254000E950FE4F80818093BB0090911A028091E8
:102550001902981708F479CF85E88093BC000AC067
:1025600085EC8093BC001092AF0204C01092AD02C3
:102570000E94F30DFF91EF91BF91AF919F918F91C9
:102580007F916F915F914F913F912F910F900FBE6F
:102590000F901F901895FC0191819F5F983110F466
:1025A0009183089511820895FC0125E090819F5F39
:1025B0009C3310F4908301C010822150B9F7089524
:1025C000882341F080919A040E94320F21E0892BE8
:1025D00049F007C080919A040E94320F21E00197D0
:1025E00009F020E0822F0895382F2091D302909196
:1025F000D202213208F049C08091AF028111FCCF94
:1026000042E04093AF023093AE023FEF3093AD0211
:102610001092AC022093AB02A2EBB2E04BE852E086
:10262000FA013E2F341B321718F43D913193F9CF44
:1026300010928A0220918A02990F922B90938A021B
:1026400090918902913061F41092890290918A02EE
:102650009093BB009091BC0093FDF8CF95EC01C026
:1026600095EE9093BC009091AF029230E1F390917F
:10267000AD029F3F79F08091AD02803241F08091B0
:10268000AD02803331F084E005C081E003C082E018
:1026900001C083E01092B1021092D3021092B002F6
:1026A00008951F93CF93DF93C6E0D5E08F8991E023
:1026B0009093B0028093D2021092B1021092D30292
:1026C00060E081E793E00E94810E8A8D1AE0612F1D
:1026D0000E94C42D692F20E1829F600D112481E7A3
:1026E00093E00E94810E8881612F0E94C42D692F82
:1026F00020E1829F600D112481E793E00E94810E0A
:102700008981612F0E94C42D692F20E1829F600D75
:10271000112481E793E00E94810E8B81612F0E943A
:10272000C42D692F20E1829F600D112481E793E081
:102730000E94810E8A81612F0E94C42D692F20E1A1
:10274000829F600D112481E793E00E94810E8C81AD
:10275000612F0E94C42D692F20E1829F600D1124FA
:1027600081E793E00E94810E8D81612F0E94C42D2C
:10277000692F20E1829F600D112481E793E00E9480
:10278000810E81E0DF91CF911F910C94F4126F9232
:102790007F928F929F92BF92CF92DF92EF92FF92A1
:1027A0000F931F93CF93DF93D0E0FF24F394EE2495
:1027B000EA9486E0D82E95EEC92E25ECB22E09E6D5
:1027C00012E080911D05F092B0028093D202109227
:1027D000B1021092D30260E081E793E00E94810E83
:1027E00080E00E94F41280911D059091AF0291113A
:1027F000FCCFF092AF02F092AE02E092AD021092E6
:10280000AC02D092AB02F0928A0290918A02880FB9
:10281000892B80938A0280918902813069F4109219
:10282000890280918A028093BB008091BC0083FD65
:10283000F8CFB092BC0002C0C092BC008091AF0241
:102840008130E1F38091AC02873018F4C091AC0282
:1028500001C0C7E0ABE8B2E0E9E6F2E08E2F801BF2
:102860008C1718F48D918193F9CF10926802C09360
:102870006702C73009F069C081E793E00E94350E16
:10288000982F9695969596959E70292F220F220F38
:10289000920F8F70890F8093200581E793E00E944B
:1028A000350E982F92959F708F702AE0929F800D21
:1028B00011248093060581E793E00E94350E982F3E
:1028C0009695969596959670292F220F220F920F26
:1028D0008F70890F8093070581E793E00E94350E82
:1028E000982F92959F708F702AE0929F800D1124EF
:1028F0008093090581E793E00E94350E982F929509
:102900009F708F702AE0929F800D1124809308059C
:1029100081E793E00E94350E982F92959F708F70FB
:102920002AE0929F800D112480930A0581E793E0AD
:102930000E94350E982F92959F708F702AE0929F7B
:10294000800D112480930B0510C0612C712C8C2EEE
:10295000912C6814790444F481E793E00E94350EC9
:102960008FEF681A780AF5CFDF5F81E00E94F412DA
:10297000C730A1F4D830B1F48BE080932005809368
:1029800006058093070581E080930905809308057B
:1029900080930A058EED80930B0504C0D83008F4AF
:1029A00010CFE8CFDF91CF911F910F91FF90EF9063
:1029B000DF90CF90BF909F908F907F906F90089501
:1029C00080E090E00E946F188A3C29F06AEC80E079
:1029D00090E00E946D1881E090E00E946F188730AF
:1029E00029F067E081E090E00E946D1882E090E0BD
:1029F0000E946F1860918005861721F082E090E0B8
:102A00000E946D1883E090E00E946F18609181052C
:102A1000861721F083E090E00E946D1884E090E03A
:102A20000E946F1860918205861721F084E090E083
:102A30000E946D1885E090E00E946F1860918305F8
:102A4000861721F085E090E00E946D1886E090E006
:102A50000E946F1860918405861721F086E090E04F
:102A60000E946D1887E090E00E946F1860918505C4
:102A7000861721F087E090E00E946D1888E090E0D2
:102A80000E946F186091860590E0262F062E000C9C
:102A9000330B8217930721F088E090E00E946D18B5
:102AA00089E090E00E946F1860918805861721F0F8
:102AB00089E090E00E946D188AE090E00E946F1813
:102AC00060918705861721F08AE090E00E946D18DA
:102AD0008BE090E00E946F1860918905861721F0C5
:102AE0008BE090E00E946D188CE090E00E946F18DF
:102AF000E0918A05F0918B056081861721F08CE0CA
:102B000090E00E946D188DE090E00E946F18E091B7
:102B10008A05F0918B056181861721F08DE090E0A8
:102B20000E946D188EE090E00E946F18E0918C0575
:102B3000F0918D056081861721F08EE090E00E9473
:102B40006D188FE090E00E946F18E0918C05F09175
:102B50008D056181861721F08FE090E00E946D184D
:102B600080E190E00E946F1860918E05861721F039
:102B700080E190E00E946D1881E190E00E946F1862
:102B800060918F05861721F081E190E00C946D181B
:102B90000895E7E4F2E01192119282E0E736F80737
:102BA000D1F708950F931F9380910A05811103C0F7
:102BB00081E080930A05A0910A05AD3010F0AC5079
:102BC000FCCFA0930A0580910805811103C081E024
:102BD0008093080580910B05582F5370409108058C
:102BE0000A2F10E0015011090C30110530F4980142
:102BF00022593F4FF9010C94F82D90E009C0511172
:102C000006C09DE105C09EE103C09FE101C09CE1BB
:102C1000242F30E0941718F4422F491BE5CF40933E
:102C2000080564E60E94C42D492F90930B05A3303C
:102C300008F44150EEEFEA0FEB3028F4F0E0E45EE8
:102C4000FE4F808101C080E0B901680F711DCB018A
:102C5000840F911D46954695840F911D67E070E0A5
:102C60000E94E42D009709F487E0809309051F91E5
:102C70000F9108950F931F930E943D106093DC0203
:102C80007093DD028093DE029093DF02E091D40224
:102C9000F091D5020484F585E02D84ED92E009954C
:102CA00097FF1FC00E943D100091DC021091DD02D1
:102CB0002091DE023091DF02DC01CB01801B910B01
:102CC000A20BB30B0091D8021091D9022091DA0225
:102CD0003091DB0280179107A207B307B8F28FEF9C
:102CE0009FEF1F910F910895A62F65E00E94C42DBC
:102CF000492F85E090E055E0E52FE81BE41780F4CC
:102D0000AA2311F0E82FE370F0E0EE0FFF1FE95B5C
:102D1000FD4F208131812F61318320830197ECCFDA
:102D20000895DF92EF92FF920F931F93CF93DF935B
:102D3000EC01FC0101900020E9F73197E81BF90B49
:102D4000E230F10509F049C070E040E050E025E0D4
:102D5000F22E36E0D32EDB01AA0FBB1FA95BBD4FBD
:102D6000E12C8E2D90E0FE0101900020E9F73197D3
:102D7000EC1BFD0B8E179F0738F5FE01E80FF91FBE
:102D80002081E0EDE20F022E000C330B01960D9135
:102D90001C911197EA3008F441C021543109D29EA8
:102DA000F001D39EF00D1124E40FF51FEF56FD4FF7
:102DB000E491F0E09C0121703327D29EC001D39EA4
:102DC000900D112405963EC04F5F5F4F6F5F7F4FA0
:102DD0004530510509F0BFCF5AC0319709F057C0AF
:102DE000A62FB0E0AA0FBB1FA95BBD4F80E090E00B
:102DF00045E056E0288160ED620F022E000C330B97
:102E00006A3060F121543109529FF001539FF00D57
:102E10001124E80FF91FEF56FD4F2BC02053310945
:102E2000F29EF001F39EF00D1124E40FF51FE15A1C
:102E3000FD4FE491F0E0817099272F2DF89E200D31
:102E40001124822F02C0EE0FFF1F8A95E2F70E2B8E
:102E50001F2B11961C930E93E39483CF20533109BB
:102E6000429FF001439FF00D1124E80FF91FE15A32
:102E7000FD4FE4912D913C9111973E2B11963C937F
:102E80002E93019612968530910509F0B3CFDF910C
:102E9000CF911F910F91FF90EF90DF9008954430F4
:102EA00008F089C090E0662309F47DC020915902A2
:102EB00030915A02206E30935A0220935902893180
:102EC000910508F078C0FC01E658FF4F0C94F82DEE
:102ED00080914F0290915002806C976090935002C5
:102EE00080934F020895809151029091520298630D
:102EF00005C080915102909152029C6390935202BE
:102F00008093510208958091510290915202906FE6
:102F1000F5CF809153029091540298670DC0809133
:102F2000550290915602806E916038C08091530294
:102F300090915402806E916090935402809353025A
:102F400008958091590290915A029C6790935A0279
:102F50008093590208958091510290915202806E9F
:102F60009760CCCF809157029091580298670CC01F
:102F700080915502909156029E6110C08091570237
:102F800090915802806897609093580280935702FE
:102F900008958091550290915602906E909356023A
:102FA0008093550208958931910528F4FC01ED566E
:102FB000FF4F0C94F82D0895EF92FF920F931F93FB
:102FC000CF93DF93EC013D813323C9F0632F70E091
:102FD000AB014D5F5F4F5595479555954795EDE68C
:102FE000F1E06E9FC0016F9F900D7E9F900D1124A8
:102FF000480F591F052E000C660B770B03C040E0ED
:1030000050E0BA01EC818E2F90E0FC013297EB305A
:10301000F105B8F5E455FF4F0C94F82D425E5F4F73
:103020006F4F7F4F415E5F4F6F4F7F4F425E5F4FED
:103030006F4F7F4F415E5F4F6F4F7F4F415E5F4FDE
:103040006F4F7F4F425E5F4F6F4F7F4F415E5F4FCD
:103050006F4F7F4F425E5F4F6F4F7F4F415E5F4FBD
:103060006F4F7F4F343028F4445E5F4F6F4F7F4F78
:1030700004C0435E5F4F6F4F7F4F415E5F4F6F4FA6
:103080007F4F8A819A01AB01280F311D411D511DCF
:10309000A8E1B0E00E94512D29817B018C01E20E54
:1030A000F11C011D111DA8019701ACE3B0E00E94C5
:1030B000512D2881022F10E020E030E0005A154009
:1030C00021093109600F711F821F931FDF91CF917A
:1030D0001F910F91FF90EF9008950C94242D0C9464
:1030E0001C2DE0918A05F0918B05818120813CE3C4
:1030F000839FC0011124820F911DE0918C05F091F6
:103100008D05418120817CE3479FA0011124420F5E
:10311000511D8417950784F42091070560910605D9
:103120007CE3279F90011124260F311D82179307FE
:10313000D4F424173507ACF048175907A4F42091AC
:103140000705609106057CE3279F90011124260F57
:10315000311D821793072CF081E02417350724F0E6
:1031600002C081E0089580E00895CF93DF93C6E028
:10317000D5E01A8E0E9451130E94C7138A8D809346
:10318000DB01DF91CF910895CF93DF931F92CDB7ED
:10319000DEB780918205811116C06091830566308B
:1031A00090F06A5065306CF06093830569830E94EB
:1031B000E01469818CE295E00F90DF91CF910C943F
:1031C000580965E0F1CF0F90DF91CF910895CF932B
:1031D000DF931F92CDB7DEB780918205811115C0B4
:1031E00060918305643688F4665F65360CF064E6AA
:1031F0006093830569830E94E01469818CE295E005
:103200000F90DF91CF910C9458090F90DF91CF91DF
:10321000089580914C04833059F0853049F083E063
:1032200080934C040E94C50B8CE295E00C94720BC9
:1032300080914B0480934C0408950F931F93CF9378
:10324000DF93EC018B0181E080930401C730D1054D
:1032500091F030F4C130D105D1F40E94850B17C034
:10326000C830D10559F0C930D10589F480914B049B
:1032700080934C040CC00E94091909C083E080931C
:103280004C040E94C50B8CE295E00E94720B809169
:103290004C04833009F4C7C0853009F4C4C0C53676
:1032A000D10509F469C0D8F4C530D10509F441C08D
:1032B00048F4C330D10579F188F5C230D10509F45D
:1032C00060C0B1C0CA30D10509F447C0C436D105C9
:1032D00009F44FC0C630D10509F0A5C033C0C936C6
:1032E000D10509F471C038F4C736D10509F44EC0D0
:1032F00008F445C05AC0CB36D10509F480C008F4A3
:1033000071C0CC36D10509F486C0CD36D10509F09F
:103310008AC081E01AC00E94170A88C09091820575
:10332000911184C0823019F40E94E7187FC082E0B6
:103330000CC090918205911179C08230C1F70E9432
:10334000C41874C0863030F486E080934C048093B7
:103350004B046CC00E94850B69C0F80183818331E6
:1033600009F089C090918705933109F084C084E108
:1033700082C00E94E0145AC0F8018481E6CF8B30ED
:1033800019F40E94690952C08BE0DFCF8630E1F664
:103390009091820581E0892780938205811146C042
:1033A000809179058093830541C0811107C086E033
:1033B00095E00E94CB120E94B51857C0863008F4E1
:1033C00054C00E94170A51C0811130C08091070576
:1033D000811102C087E101C08150809307050E94DE
:1033E000B51824C0811108C0809106058F5F8C3309
:1033F00078F010920605F3CF8630C0F0C2CF81116D
:1034000015C080910605811102C08BE301C0815077
:1034100080930605E4CFF80182818093880581E0DE
:103420008093780503C0C836D105F9F0CA36D105B6
:10343000E1F0CE0101970397C0F02697B1F080919B
:103440004C04863049F020F48150823060F404C08E
:10345000883029F08B3039F480918E0501C082E0EC
:103460008093DA0102C01092DA01DF91CF911F91AF
:103470000F910C94E0148093870580918705833128
:1034800028F088E080934C0480934B0410927005E0
:103490000E943D10609371057093720580937305CF
:1034A00090937405C3CFCF92DF92EF92FF92282FB3
:1034B000862F27FF02C0285EFCCF283114F0285148
:1034C000FCCF443008F0F8C0A0914702B091480208
:1034D000BD017C6D709348026093470265E00E94D5
:1034E000C42DC82ED12C8CE0C816D10408F0E4C03D
:1034F000F601E954FF4F0C94F82D61E010C0A06E66
:10350000BD6DB0934802A093470280914D02909107
:103510004E029C6390934E0280934D0260E0822F96
:10352000C5C08091490290914A02906F90934A02DF
:1035300080934902EACF80914B0290914C02342F44
:103540003D7F806E9F6090934C0280934B023130A0
:10355000E1F6A9C080914D0290914E02609149021E
:1035600070914A02433031F4706F70934A02609355
:10357000490211C0606E7F6070934A0260934902F5
:10358000C8CFA06EBD6DB0934802A0934702809152
:103590004D0290914E02806893600BC0A06EBD6D8D
:1035A000B0934802A093470280914D0290914E0241
:1035B0009C6390934E0280934D0280914F029091B4
:1035C0005002906F9093500280934F026CC06091B4
:1035D0004D0270914E02E0914902F0914A0281E061
:1035E000820F4330A9F4F06FF0934A02E09349024E
:1035F0007C6370934E0260934D0240914F02509154
:103600005002506F5093500240934F0243E02FC03E
:10361000E06EFF60F0934A02E093490260687360D5
:1036200070934E0260934D0222C060914B027091E4
:103630004C0281E0820F9FEF940F933038F4606E5C
:103640007F6F70934C0260934B0211C0606E7F607D
:1036500070934C0260934B0240914D0250914E0288
:103660004068536050934E0240934D0240E060E04A
:103670001DC08091490290914A02906F90934A0236
:103680008093490206C0A06EBD6DB0934802A0931E
:10369000470280914D0290914E0280689360909312
:1036A0004E0280934D0260E081E0820FFF90EF9028
:1036B000DF90CF900C944F17FF90EF90DF90CF905A
:1036C0000895CF93DF93CDB7DEB727970FB6F89461
:1036D000DEBF0FBECDBF789484B5826084BD84B553
:1036E000816084BD85B5826085BD85B5816085BDFD
:1036F00080916E00816080936E00109281008091B5
:10370000810082608093810080918100816080933C
:103710008100809180008160809380008091B10061
:1037200084608093B1008091B00081608093B0008C
:1037300080917A00846080937A0080917A00826020
:1037400080937A0080917A00816080937A008091E2
:103750007A00806880937A001092C100E091E402C0
:10376000F091E50282E08083E091E402F091E502CD
:103770001082E091E002F091E1021082E091E20219
:10378000F091E30280E180831092EC02E091E80284
:10379000F091E90286E08083E091E602F091E70291
:1037A000808180618083E091E602F091E702808170
:1037B00088608083E091E602F091E7028081806872
:1037C0008083E091E602F091E70280818F7D808323
:1037D00082E390E0A0E0B0E08093D8029093D90219
:1037E000A093DA02B093DB0261E08FEF0E948B0FAF
:1037F00061E08FEF0E945B0F8CE295E00E94E10197
:103800008CE295E00E94650B0E94C9151092680237
:10381000109267021092B1021092D3021092AF027E
:1038200081E08093AE021092890261E082E10E9401
:103830005B0F61E083E10E945B0F8091B9008E7F96
:103840008093B9008091B9008D7F8093B90088E49E
:103850008093B80085E48093BC0060E082E00E9421
:103860008B0F61E082E00E945B0F13E061E08091CA
:103870009B040E945B0F64E670E080E090E00E9491
:10388000031060E080919B040E945B0F64E670E08F
:1038900080E090E00E940310115041F70E94C7138E
:1038A000809120058C3310F00C941A278091060526
:1038B0008C3310F00C941A2780910705883110F092
:1038C0000C941A2780910B058F3010F40C941A2752
:1038D00080911D0591E09093B0028093D2021092E6
:1038E000B1021092D30267E081E793E00E94810E5B
:1038F00060E181E793E00E94810E81E00E94F41272
:103900000E945113809120058093DB018AE399E0A6
:103910009093010180930001809169008C7F826007
:1039200080936900E89A08EE13E081E10E94C70FD6
:1039300001501109D1F713E061E080911F050E9449
:103940005B0F64E670E080E090E00E94031060E0AE
:1039500080911F050E945B0F64E670E080E090E0BC
:103960000E940310115041F706E811E0F80164913C
:10397000611138C044E350E069E671E084ED92E003
:103980000E94960C42E050E06EE971E084ED92E016
:103990000E94960CF89482E08093B0008093B1006E
:1039A00094E69093B3001092B200809370007894E4
:1039B00080937E0310924A0480917D0360E00E9410
:1039C0008B0F60E08FEF0E945B0F609183058CE2AC
:1039D00095E00E9458090E943D106B017C010FEF99
:1039E0001FEF1EC0E091D402F091D5020190F0814A
:1039F000E02D84ED92E009950F5F1F4F892B09F0B0
:103A0000B5CFB8CF0193119322E0E736F207D1F793
:103A100020E041E067E472E08CE295E00E94E6027B
:103A20000E943D10DC01CB018C199D09AE09BF0934
:103A300088389341A105B10518F4E7E4F2E0E2CF3C
:103A400022242394312C88248A94982C54018FE9C1
:103A500094E01BE3180F198380918205882309F4F1
:103A6000BCC00E943D100091ED011091EE0120912B
:103A7000EF013091F001601771078207930750F44E
:103A80000E943D106093ED017093EE018093EF0171
:103A90009093F001C090ED01D090EE01E090EF0125
:103AA000F090F0012AE0C20ED11CE11CF11C0E9432
:103AB0003D10C616D706E806F90608F08EC08091BC
:103AC0006E04811106C080916D040E94C70F9C0195
:103AD00008C080916D040E94C70F2FEF33E0281BB0
:103AE000390B80916F04909170042817390709F4FD
:103AF0005BC02115310579F02F3F43E0340759F0C1
:103B0000AC014E5C5F4F421753072CF0C297281749
:103B100039070CF049C03093700420936F048091F2
:103B20007204909173042817390724F430937304B6
:103B30002093720480917404909175048217930706
:103B400024F43093750420937404C0907204D090D0
:103B500073040D2C000CEE08FF08C901330FAA0BEB
:103B6000BB0B9C01AD012C193D094E095F09A4E670
:103B7000B0E00E94512D20917404309175048901A8
:103B8000330F220B330BA90198012C193D094E0963
:103B90005F090E94322D253020F0253618F024E6EA
:103BA00001C025E020937104809171046091790532
:103BB000861710F4615003C0681728F46F5F8CE219
:103BC00095E00E9458090E943D106093ED017093AA
:103BD000EE018093EF019093F0018091040188231E
:103BE00009F4BAC4109204018091DB018C3330F0E7
:103BF0000E94C713809120058093DB01E0914C0463
:103C00008E2F90E08631910508F09DC4FC01EC5C9C
:103C1000FF4F0C94F82D0E94C91590918605809154
:103C200007054091800560910605890F0E94531A8F
:103C3000609181058091060584C40E94C915409158
:103C4000860547FF0AC08091490290914A02906E12
:103C500090934A02809349021DC04423D9F0809179
:103C6000490290914A02906E209147023091480299
:103C70003064309348022093470290934A02809325
:103C8000490280914B0290914C02906490934C02B7
:103C900080934B02242F042E000C330B8827992786
:103CA000821B930B11E014161CF44A302CF403C051
:103CB0008A3091050CF410E077E4E72E72E0F72EDD
:103CC00014160CF4C9016AE070E00E94E42D47E08C
:103CD000489F9001499F300D112480E090E0FC0145
:103CE000E20FF31FEE53FE4FE49150E2E59FF00127
:103CF0001124D70116964D915C9117974E2B5F2B8F
:103D0000111105C017965C934E93169710C0FC01D5
:103D1000E753FE4FE491F0E0FE2FEE27FF0FFF0F79
:103D2000E42BF52BD7011796FC93EE93169701968B
:103D3000B2E0EB0EF11C8730910589F604C40E94B5
:103D4000C915A9E4B2E020E030E05AE047E08091F4
:103D5000DB01652F0E94C42DF901489FE00DF11D84
:103D60001124EE53FE4F14918091DB010E94C42D6B
:103D7000F901499FE00DF11D1124EE53FE4F84918E
:103D8000E12FF0E0FE2FEE27FF0FFF0FFF0F10E2F5
:103D9000819FC0011124E82BF92B8D919C911197E3
:103DA000E82BF92BED93FD932F5F3F4F2730310523
:103DB00071F6C9C30E94C9158091820515E0882358
:103DC00041F062E085ED91E00E9491161150C9F733
:103DD000BAC362E089EC91E00E9491161150C9F7D4
:103DE000B2C30E94C915AFC30E94C91520918305B3
:103DF000822F90E0A0E0B0E09C01AD01215031099C
:103E000041095109A9E0B0E00E94512D23E630E0BC
:103E100040E050E00E94322DA22F2093EC018EE072
:103E200090E0BEE07B2F781B7A1708F08CC341E04E
:103E300050E0082E02C0440F551F0A94E2F7EBE54C
:103E4000F2E060E032912291242B352B31832083E4
:103E50006F5F7617B8F70197E5CF0E94C91560E04C
:103E600081EA91E00E94911680918805813061F08D
:103E700048F0823069F0833009F065C365E08DEA6F
:103E800091E0A4C265E07AC165E087EA91E09EC254
:103E900065E08AEA91E09AC20E94C915809187057F
:103EA00060E0833108F03AC081EB91E00E94911606
:103EB00080918705A1E5B2E06AE00E94C42D692FD8
:103EC00025E0289FC0011124269FB001112440E065
:103ED00050E0FA01E80FF91FE057FE4F3491FA0164
:103EE000E60FF71FE057FE4F2491E32FF0E0FE2F7F
:103EF000EE27FF0FFF0F10E2219F90011124E22B0C
:103F0000F32B2D913C911197E22BF32BED93FD9325
:103F10004F5F5F4F45305105E1F615C380EB91E0EF
:103F20000E9491168091870590E0429701E512E08A
:103F30006AE070E00E94E42D25E0269F7001279F33
:103F4000F00C1124289FA001299F500D112420E07E
:103F500030E0F901EE0DFF1DE057FE4F9491F9019D
:103F6000E40FF51FE057FE4F8491E92FF0E0FE2F9C
:103F7000EE27FF0FFF0F60E2869FC0011124E82BA0
:103F8000F92BD8018D919C911197E82BF92BED938A
:103F9000FD938D012F5F3F4F25303105D1F6D3C200
:103FA0000E94C91560E083EB91E00E949116809118
:103FB0008F056AE00E94C42D692FA1E5B2E0E5E01B
:103FC0008E9FC0011124F5E06F9FB001112440E0E5
:103FD00050E0FA01E80FF91FE057FE4F3491FA0163
:103FE000E60FF71FE057FE4F2491E32FF0E0FE2F7E
:103FF000EE27FF0FFF0FFF0F10E2219F900111240A
:10400000E22BF32B2D913C911197E22BF32BED93A7
:10401000FD934F5F5F4F47305105D9F694C20E9420
:10402000C91560E086EB91E00E94911680918E05A3
:104030006AE00E94C42D692FA1E5B2E025E0829FCD
:10404000C001112435E0639FB001112440E050E02D
:10405000FA01E80FF91FE057FE4F3491FA01E60F1D
:10406000F71FE057FE4F2491E32FF0E0FE2FEE27DD
:10407000FF0FFF0FFF0F10E2219F90011124E22B91
:10408000F32B2D913C911197E22BF32BED93FD93A4
:104090004F5F5F4F47305105D9F655C20E94C91591
:1040A0008091DA01811109C060E084EA91E00E9408
:1040B000911665E089EB91E089C10E94C915E091F4
:1040C0008A05F0918B0540918005608181810E9475
:1040D000531A80918005843048F480914702909172
:1040E000480293729093480280934702E0918A05B8
:1040F000F0918B052CC00E94C9158091DA018111C5
:1041000009C060E083EC91E00E94911665E08CEBC1
:1041100091E05CC10E94C915E0918C05F0918D057C
:1041200040918005608181810E94531A80918005B1
:10413000843048F4809147029091480293729093A2
:10414000480280934702E0918C05F0918D058181B2
:104150008C3008F4F8C16091810581E0F2C10E94C1
:10416000C91560E08FEB91E00E9491168091850562
:1041700065E0882319F082EC91E028C184EA91E09F
:1041800025C10E94C91560E085EC91E00E9491165E
:1041900080910B056AE00E94C42DA1E5B2E025E004
:1041A000929FA001112435E0839FC001112420E0DB
:1041B00030E0B901640F751FFB01E057FE4F6491B9
:1041C000F901E80FF91FE057FE4FE491F0E26F9F0D
:1041D000B0011124F0E0FE2FEE27FF0FFF0FE62BBA
:1041E000F72B6D917C911197E62BF72BED93FD93B7
:1041F0002F5F3F4F25303105E1F6A5C10E94C9155B
:1042000060E088EC91E00E94911680910A056AE0D6
:104210008A3098F10E94C42DA1E5B2E015E0919F8B
:10422000A001112425E0829FC001112420E030E08C
:10423000B901640F751FFB01E057FE4F6491F9014E
:10424000E80FF91FE057FE4FE491F0E26F9FB001D5
:104250001124F0E0FE2FEE27FF0FFF0FE62BF72BC8
:104260006D917C911197E62BF72BED93FD932F5FCA
:104270003F4F25303105E1F666C10E94C42DA1E50E
:10428000B2E015E0919F9001112480E090E0FC01E4
:10429000E20FF31FE057FE4FE49140E8E49FF00186
:1042A00011244D915C911197E42BF52BED93FD9327
:1042B00001968530910559F746C10E94C91560E005
:1042C0008BEC91E00E949116809108056AE08A309B
:1042D00098F10E94C42DA1E5B2E065E0969FA0018F
:1042E000112475E0879FC001112420E030E0B9015E
:1042F000640F751FFB01E057FE4F6491F901E80F51
:10430000F91FE057FE4FE491F0E26F9FB0011124D6
:10431000F0E0FE2FEE27FF0FFF0FE62BF72B6D913E
:104320007C911197E62BF72BED93FD932F5F3F4F79
:1043300025303105E1F607C10E94C42DA1E5B2E0A8
:1043400015E0919F9001112480E090E0FC01E20FC4
:10435000F31FE057FE4FE49140E8E49FF001112481
:104360004D915C911197E42BF52BED93FD93019604
:104370008530910559F7E7C00E94C91580918005E5
:10438000813099F070F08230C9F0833009F0DBC0E1
:1043900060E08EEC91E00E94911665E087ED91E07F
:1043A00015C062E08EEC91E011C060E08EEC91E00F
:1043B0000E94911665E081ED91E008C060E08EEC0E
:1043C00091E00E94911665E084ED91E00E949116C3
:1043D000BAC00E94C9150E943D10009100051091BD
:1043E00001052091020530910305601B710B820BC2
:1043F000930B20E63AEE40E050E00E94642DCA01A3
:10440000B90120EA35E040E050E00E94642D9B01B4
:104410007093EB016093EA01CB016CE370E00E94C2
:10442000D02D8B01FC01A7E46A2EA2E07A2EC901EF
:1044300068E572E00E94D02DB5E0DB2ED69E7001BB
:10444000D79EF00C11242AE030E0C801B9010E9487
:10445000D02DD89E8001D99E100D1124CF01B90115
:104460000E94D02DD69E2001D79E500C1124D89E9C
:10447000A001D99E500D112420E030E0F901EE0D8D
:10448000FF1DE057FE4F9491F901E00FF11FE05737
:10449000FE4F8491E92FF0E0FE2FEE27FF0FFF0F74
:1044A000FF0F60E4869FC0011124E82BF92BD30194
:1044B0008D919C911197E82BF92BED93FD933D0184
:1044C000B901640D751DFB01E057FE4F6491F901C0
:1044D000E40FF51FE057FE4FE49170E0762F66275A
:1044E000770F770F770F18968D919C911997682BFE
:1044F000792BB0E4EB9FC0011124682B792BF301D9
:10450000718760872F5F3F4F2530310509F0B6CFA7
:104510008091490290914A02806290934A0280936E
:10452000490280914D0290914E02806290934E021A
:1045300080934D0208C00E94C91560918105809149
:1045400005050E9474162091870541E067E472E03A
:104550008CE295E00E94E60280914C048531F1F4F2
:1045600010910505809185050E94E012882369F06D
:104570008091040581110BC081E080930405809136
:1045800005058F5F8093050502C010920405809198
:104590000505181719F081E08093040180914C04FF
:1045A000811106C085E594E00E94FB08811155C485
:1045B00080914C04833009F061C085E594E00E944D
:1045C000FB08882309F45AC081E0809304010E940B
:1045D0003D106B017C0185E694E00E94D40888239D
:1045E00009F43EC48DE594E00E94D408882309F4C0
:1045F00037C40E943D10DC01CB018C199D09AE0926
:10460000BF0989389341A105B10528F310924C04E4
:1046100010924B04109280051092890581E08093DE
:104620008105809382058BE4809383051092840535
:1046300010928805109285051092860510928705C4
:1046400010928F05E0918A05F0918B05108283E02E
:1046500081831282138214821582E0918C05F0917D
:104660008D058EE1808384E081831282138214821F
:10467000158285E080938E050E94E01485E694E023
:104680000E94FB0881110E9469098DE594E00E9457
:10469000FB0881110E94170A8DE494E00E94FB0838
:1046A00081110E94850B00E010E084ED92E00E94F1
:1046B000F20C181619060CF054C00E943A16FC01B0
:1046C00097FD11C08D32910591F0C0970A9778F04F
:1046D000E091D402F091D5020284F385E02D84EDBF
:1046E00092E00995EACF40E050E0BA012FC020E007
:1046F00030E0A901F12CE130F10509F03BC4E09173
:10470000D402F091D5020284F385E02D84ED92E08D
:104710002A833B834C835D8309950E943A16FC01F2
:10472000C0972A813B814C815D810A9720F3E1305B
:10473000F10509F3FF2009F43DC4DA01C90144275A
:104740005527BA01481B590B6A0B7B0B81E295E098
:104750000E94FB01082F10E084ED92E00E94D00C33
:10476000A4CF0115110529F061E275E0C8010E948E
:104770001D1982E893E09093E7018093E601809110
:104780004A0490E09093E9018093E80180917E03D0
:10479000853009F04EC0809184039091850388583C
:1047A00091098D35910580F480914A04843039F463
:1047B00080918603909187038097479758F0809166
:1047C0004A04843408F052C382E080937E0310923E
:1047D0004A042FC080918803909189030997099713
:1047E00070F71092E5011092E4018092E00190923E
:1047F000E101A092E201B092E3013092DD0120924A
:10480000DC014091E0015091E1016091E201709181
:10481000E30186E295E00E94FB0192E090937E0323
:1048200010924A04882329F066E275E090E00E9425
:104830001D19E0918C05F0918D0581812081ACE3FB
:104840008A9FC0011124820F911D892B29F1E091CB
:104850008A05F0918B0581812081BCE38B9FC0018B
:104860001124820F911D0097B9F020914C0425303E
:1048700070F42091070540910605ECE32E9F90010E
:104880001124240F311D8217930709F437C3809137
:104890004C04853009F437C380914C04833059F0BF
:1048A000853049F02091870540E067E472E08CE2B2
:1048B00095E00E94E602809185050E94E01288231F
:1048C00011F061E001C060E080919B040E945B0FE9
:1048D00082E00E94320F019711F461E001C060E0B4
:1048E00080911F050E945B0F709085050E94DE0F6E
:1048F000C090F804D090F904E090FA04F090FB0422
:104900000091FC041091FD042091FE043091FF04FD
:10491000AB01BC014C195D096E097F0940175107B5
:104920006207730708F491C1D901C8018C0D9D1D60
:10493000AE1DBF1D8093F8049093F904A093FA0470
:10494000B093FB048091F1049091F204019690934E
:10495000F2048093F1042091F6043091F7041216CA
:10496000130634F4215031093093F7042093F604F0
:104970000B970CF43FC11092F2041092F104609175
:104980009C0470919D0480E090E00E94212C2BE714
:1049900034E14EE25EE30E945E2C0E94952D10925F
:1049A0009D0410929C04EBEDF4E010E020E030E078
:1049B000A0E0B0E080E041915191A417B50710F458
:1049C000182FDA01240F351F8F5F8B30A1F78091EC
:1049D0009E04E82FF0E0ED57FB4F6217730740F499
:1049E00091E0948F8F5F8C3328F480939E0404C0F1
:1049F000148EF8CF10929E04232B09F0E8C080910A
:104A00009F049091B304913011F421E0811120E0D2
:104A10009091B0048091B104981301C020E01092ED
:104A2000830440E050E030E080E090E0FA01ED5790
:104A3000FB4F61A9662341F0FA01E15FFE4F7081EF
:104A4000679F300D112401964F5F5F4F473051052E
:104A500069F7309383043091BB04830F911D80FD6F
:104A600020E01092840440E050E030E080E090E0EC
:104A7000FA01ED57FB4F61AD662341F0FA01E15FAA
:104A8000FE4F7081679F300D112401964F5F5F4F7D
:104A90004630510569F7309384043091C204830F86
:104AA000911D80FD20E01092850440E050E030E050
:104AB00080E090E0FA01ED53FB4F6081662341F006
:104AC000FA01E15FFE4F7081679F300D112401965E
:104AD0004F5F5F4F4630510569F730938504309141
:104AE000C904311101964091CA04442319F0440FBE
:104AF000340F01964091CB04442321F0440F440F1E
:104B0000340F0196309386041092870440E050E001
:104B100030E0FA01E453FB4F6081662341F0FA0173
:104B2000E15FFE4F7081679F300D112401964F5F4A
:104B30005F4F4530510569F7309387041092880420
:104B400040E050E030E0FA01EF52FB4F6081662315
:104B500041F0FA01E15FFE4F7081679F300D112433
:104B600001964F5F5F4F4830510569F730938804D5
:104B70003091D904830F911D80FD20E08091830442
:104B80008C3308F020E080918404883108F020E024
:104B900080918504803208F020E0809187048D3078
:104BA00010F42111DBC1109283041092840410923E
:104BB0008504109286041092870410928804EFE90D
:104BC000F4E0119229812E13FCCF10929E0485E00F
:104BD00090E0811B91092091F3043091F404820F3D
:104BE000931F9093F4048093F3048091F5048F5FF6
:104BF0008093F5048091F5048E31D0F01092F50485
:104C00008091F3049091F4046EE170E00E94E42D31
:104C10007093F2046093F104EBEDF4E011921192C1
:104C200034E0E13FF307D1F71092F4041092F3045B
:104C30008091F1049091F20497FD07C0880F991FAD
:104C4000FC01E552FB4F118210828091F604909195
:104C5000F704892B41F48FEF9FEF9093F704809333
:104C6000F60411E001C010E08091F1049091F2048B
:104C700097FD1BC0872D0E94E012882369F0E09108
:104C8000F104F091F204EE0FFF1FE552FB4F80811B
:104C9000918101969183808380919C0490919D04E1
:104CA000019690939D0480939C04112309F4BEC047
:104CB0000E94C71380917604E82FF0E0EE0FFF1FEB
:104CC000EA58FB4FA181B281909183049C9390910B
:104CD000840411969C9311979091850412969C934D
:104CE00012979091860413969C9313979091870442
:104CF00014969C9314979091880415969C93078022
:104D0000F085E02D909106059083909107059183A1
:104D100090910805928390910905938390910A05DB
:104D2000948390910B0595838F5F833019F0809366
:104D3000760402C01092760447E754E05F834E8306
:104D400011E0AE81BF818D919D91BF83AE830E94A2
:104D5000DC176B017C01EE81FF81808191810E94D3
:104D6000DC172B013C01AE81BF8116968D919C9181
:104D700017970E94DC17C60ED71EE81EF91EEE819B
:104D8000FF81848195810E94DC17C418D508E6084C
:104D9000F708C61AD70AE80AF90AF7FE08C0F0941D
:104DA000E094D094C094C11CD11CE11CF11CF2E031
:104DB000CF16D104E104F1040CF010E02E813F8104
:104DC0002B57344009F0BDCF112381F1809183042A
:104DD0008093060580918404809307058091850463
:104DE000809308058091860480930905809187044B
:104DF00080930A058091880480930B050E94B51862
:104E00000E943D1060930005709301058093020598
:104E10009093030580914C04833009F4A6C085303B
:104E200029F40E947118882309F49FC00E94920DF2
:104E30000C942C1D8BE0809306058093070591E070
:104E4000909308059093090590930A059FE090932D
:104E50000B05809320050C94681C0E94C50BA8CB01
:104E600086E080934C0480934B0408CC80918603A9
:104E700090918703825491098E9708F0A5CC80E029
:104E800090E040E050E0BA01FC01E857FC4F20817F
:104E90003181295031092930310508F095CCFC01C8
:104EA000E657FC4F208131812651310921313105EE
:104EB000F8F020813181265031092730310508F082
:104EC00083CC440F551F661F771F049680389105C9
:104ED000D9F680E290E09093E5018093E40140935D
:104EE000E0015093E1016093E2017093E30185CC0E
:104EF000440F551F661F771F4160E7CF8091DB018C
:104F0000882321F1C4CCE0918C05F0918D0521819D
:104F1000809107059081FCE32F9F90011124290FB8
:104F2000311D409106051CE3819FC0011124840FAF
:104F3000911D2817390709F0AFCC8091DB01811151
:104F4000ABCC80914B0480934C04A6CC85E080933D
:104F50004C048CE295E00E94720B99CC85E090E0C5
:104F60009093F7048093F6042ACE10924C0410928A
:104F70004B045CCFED32F105D1F0CF01C0970A9719
:104F800008F0BDCBAAE0B0E00E94512D8F01FF0FC9
:104F9000220B330BDC01CB01800F911FA21FB31F2B
:104FA0009C01AD012053310941095109A8CBFF24CF
:104FB000F394A5CBBA01A901C9CBFF920F931F931C
:104FC000CF93DF931092D7021092D60288EE93E02F
:104FD000A0E0B0E08093D8029093D902A093DA02C7
:104FE000B093DB022BE231E03093D5022093D40260
:104FF00025EC30E03093E1022093E00224EC30E035
:105000003093E3022093E20220EC30E03093E5029B
:105010002093E40221EC30E03093E7022093E60293
:1050200022EC30E03093E9022093E80226EC30E0F5
:105030003093EB022093EA021092ED021092EE02FE
:105040001092EF021092F002109274031092730308
:105050008093750390937603A0937703B0937803BE
:105060008DE391E0909372038093710387E190E068
:105070000E94982AEC01188283E089831A821B829D
:105080001C821D82D0938B05C0938A0587E190E036
:105090000E94982A8C018EE1D8018C9384E01196AD
:1050A0008C93119712961C92129713961C92139739
:1050B00014961C92149715961C9210938D050093CC
:1050C0008C05109280051092890581E080938105FE
:1050D000809382058BE4809383051092840510925F
:1050E000880510928505109286051092870510920A
:1050F0008F0585E080938E0580E090E00E946F1818
:105100008A3C09F078C081E090E00E946F188730F7
:1051100009F071C082E090E00E946F18843010F4B2
:105120008093800583E090E00E946F1891E08111E8
:1051300001C090E09093810584E090E00E946F1898
:1051400091E0811101C090E09093820585E090E0AC
:105150000E946F188093830586E090E00E946F188C
:1051600091E0811101C090E09093840587E090E088
:105170000E946F1891E0811101C090E09093850525
:1051800088E090E00E946F188093860589E090E0A7
:105190000E946F18809388058AE090E00E946F1843
:1051A000809387058BE090E00E946F1880938905BB
:1051B0008DE090E00E946F18F82E8CE090E00E9445
:1051C0006F188883F9828FE090E00E946F18C82FD3
:1051D0008EE090E00E946F18F8018083C18380E127
:1051E00090E00E946F1880938E0581E190E00E940C
:1051F0006F1880938F058FE491E090932D05809335
:105200002C0582E190E00E94982AEC01198A1B8209
:105210001A821982188289E591E00E94982A9F8358
:105220008E83009791F023E730E03983288329E5C6
:1052300031E03B832A8328E030E03D832C8349E53D
:1052400051E060E870E00E94032E8DE089878BE0DA
:105250008887E0E6F3E0E491F0E0EE0FFF1FE35D06
:10526000FC4F859194919D878C87ECE4F3E0E49169
:10527000EA87E2E6F3E0E491F0E0EE0FFF1FE35D82
:10528000FC4F859194919F878E87EEE4F3E0E49143
:10529000EB87188AD0937E05C0937D05CE010E94CE
:1052A000651181E0898B109270051092770510923C
:1052B0007605809375050E943D106093710570938B
:1052C0007205809373059093740510927A0510927D
:1052D000780510927C0510927B058AE080937D030F
:1052E00010927F0385E691E0909327058093260531
:1052F00090932205809321051092060510920705D0
:10530000109208051092090510920A0510920B05DB
:1053100088E690E090931E0580931D0584E08093BD
:105320001F0561E00E948B0F60E080911F050E94C5
:105330005B0F1092830410928404109285041092E3
:105340008604109287041092880410929D04109293
:105350009C041092F2041092F1041092F404109242
:10536000F3041092F5048FEF9FEF9093F70480936E
:10537000F604109200051092010510920205109299
:105380000305109204051092050589E080939A04A4
:1053900060E00E948B0F88E080939B0461E00E9494
:1053A0008B0F60E080919B040E945B0FEFE9F4E0BB
:1053B0008BE38E0F11928E13FDCF10929E04EBEDB6
:1053C000F4E01192119284E0E13FF807D1F78DE10A
:1053D00093E6A1E0B0E08093FC049093FD04A093D9
:1053E000FE04B093FF040E94DE0F6093F8047093F4
:1053F000F9048093FA049093FB041092760407E773
:1054000014E0C0E0D4E687E190E00E94982AFC0115
:10541000C083C183C283C383C483C583D8018D93F2
:105420009D938D0187E190E00E94982AFC01D08332
:1054300011821282138214821582D80115969C93D0
:105440008E931497CF5FC330F1F681E180936D04A2
:10545000C1E0C0936E0481E090E09093700480936B
:105460006F04109271048FEF93E090937304809314
:105470007204109275041092740415E01093650480
:105480001092690410926A0410926B0410926C04DA
:1054900010926704C093680460E085E00E948B0F5F
:1054A000D6E0D0935D0410926104109262041092D1
:1054B00063041092640410925F04C093600460E07F
:1054C00086E00E948B0F10935504D09356041092DF
:1054D000590410925A0410925B0410925C04C09319
:1054E0005704C093580460E085E00E948B0F60E091
:1054F000809156040E948B0F87E080934D04109298
:1055000051041092520410925304109254041092B9
:105510004F04C093500460E00E948B0F80914C04B4
:1055200080934B04DF91CF911F910F91FF900895CD
:10553000CF93DF938230910510F482E090E0E09108
:105540009205F091930520E030E0C0E0D0E0309784
:1055500011F14081518148175907C0F04817590788
:1055600061F482819381209719F09B838A832BC0F9
:10557000909393058093920526C02115310519F06B
:105580004217530718F49A01BE01DF01EF010280B0
:10559000F381E02DDCCF2115310509F1281B390BF2
:1055A0002430310590F412968D919C9113976115DA
:1055B000710521F0FB019383828304C090939305CE
:1055C00080939205FD01329644C0FD01E20FF31F66
:1055D00081939193225031092D933C933AC02091AD
:1055E000900530919105232B41F4209107013091D2
:1055F0000801309391052093900520910501309189
:1056000006012115310541F42DB73EB7409109013E
:1056100050910A01241B350BE0919005F091910502
:10562000E217F307A0F42E1B3F0B2817390778F079
:10563000AC014E5F5F4F2417350748F04E0F5F1FD8
:1056400050939105409390058193919302C0E0E0BF
:10565000F0E0CF01DF91CF9108950F931F93CF9387
:10566000DF93009709F48CC0FC01329713821282F9
:1056700000919205109193050115110581F4208187
:105680003181820F931F2091900530919105281749
:10569000390779F5F0939105E093900571C0D80131
:1056A00040E050E0AE17BF0750F412962D913C91A8
:1056B0001397AD012115310509F1D901F3CF9D01F2
:1056C000DA013383228360817181860F971F8217ED
:1056D000930769F4EC0128813981260F371F2E5F6B
:1056E0003F4F318320838A819B8193838283452B23
:1056F00029F4F0939305E093920542C01396FC932E
:10570000EE931297ED01499159919E01240F351F97
:10571000E217F30771F480819181840F951F02963F
:1057200011969C938E938281938113969C938E9372
:105730001297E0E0F0E0D80112968D919C911397BA
:10574000009719F0F8018C01F6CF8D919C9198018A
:105750002E5F3F4F820F931F20919005309191054E
:105760002817390769F4309729F41092930510929D
:10577000920502C013821282109391050093900546
:10578000DF91CF911F910F9108958F929F92AF92C9
:10579000BF92CF92DF92EF92FF92CF93DF93EC0113
:1057A000688179818A819B816115710581059105E7
:1057B00021F464E279ED8BE597E02DE133EF41E0F0
:1057C00050E00E94322D49015A019B01AC01A7EA29
:1057D000B1E40E94512D6B017C01ACEEB4EFA50148
:1057E00094010E945F2DDC01CB018C0D9D1DAE1D2F
:1057F000BF1DB7FF03C00197A109B04888839983F3
:10580000AA83BB83BC01CD019F77DF91CF91FF902D
:10581000EF90DF90CF90BF90AF909F908F900895C2
:105820000E94C52B08958BE091E00E94C52B08953E
:1058300060930B0170930C0180930D0190930E0106
:105840000895E89409C097FB3EF490958095709573
:1058500061957F4F8F4F9F4F9923A9F0F92F96E9BC
:10586000BB279395F695879577956795B795F11131
:10587000F8CFFAF4BB0F11F460FF1BC06F5F7F4FCE
:105880008F4F9F4F16C0882311F096E911C07723E0
:1058900021F09EE8872F762F05C0662371F096E8E9
:1058A000862F70E060E02AF09A95660F771F881FB8
:1058B000DAF7880F9695879597F908950E94712CCD
:1058C0000C94E22C0E94D42C38F00E94DB2C20F0A7
:1058D000952311F00C94CB2C0C94D12C11240C9406
:1058E000162D0E94F32C70F3959FC1F3950F50E095
:1058F000551F629FF001729FBB27F00DB11D639F82
:10590000AA27F00DB11DAA1F649F6627B00DA11D27
:10591000661F829F2227B00DA11D621F739FB00DCD
:10592000A11D621F839FA00D611D221F749F33273D
:10593000A00D611D231F849F600D211D822F762FD6
:105940006A2F11249F5750409AF0F1F088234AF0B3
:10595000EE0FFF1FBB1F661F771F881F915050401F
:10596000A9F79E3F510580F00C94CB2C0C94162D7A
:105970005F3FE4F3983ED4F3869577956795B795A6
:10598000F795E7959F5FC1F7FE2B880F911D9695C0
:10599000879597F9089597F99F6780E870E060E030
:1059A00008959FEF80EC089500240A9416161706B8
:1059B00018060906089500240A9412161306140600
:1059C00005060895092E0394000C11F4882352F063
:1059D000BB0F40F4BF2B11F460FF04C06F5F7F4F1B
:1059E0008F4F9F4F089557FD9058440F551F59F002
:1059F0005F3F71F04795880F97FB991F61F09F3FBC
:105A000079F087950895121613061406551FF2CFE4
:105A10004695F1DF08C0161617061806991FF1CF34
:105A200086957105610508940895E894BB2766275B
:105A30007727CB0197F90895F999FECF92BD81BDE3
:105A4000F89A992780B50895262FF999FECF1FBAA5
:105A500092BD81BD20BD0FB6F894FA9AF99A0FBE97
:105A600001960895052E97FB1EF400940E94492D7F
:105A700057FD07D00E94642D07FC03D04EF40C9410
:105A8000492D50954095309521953F4F4F4F5F4F91
:105A9000089590958095709561957F4F8F4F9F4F9A
:105AA00008950E94862DA59F900DB49F900DA49FF0
:105AB000800D911D11240895B7FF0C94512D0E9463
:105AC000512D821B930B0895A1E21A2EAA1BBB1B1A
:105AD000FD010DC0AA1FBB1FEE1FFF1FA217B307BA
